{
  "contractName": "Voting",
  "abi": [
    {
      "inputs": [],
      "stateMutability": "nonpayable",
      "type": "constructor"
    },
    {
      "anonymous": false,
      "inputs": [
        {
          "indexed": false,
          "internalType": "uint256",
          "name": "id",
          "type": "uint256"
        },
        {
          "indexed": false,
          "internalType": "string",
          "name": "name",
          "type": "string"
        }
      ],
      "name": "CandidateAdded",
      "type": "event"
    },
    {
      "anonymous": false,
      "inputs": [
        {
          "indexed": false,
          "internalType": "string",
          "name": "name",
          "type": "string"
        }
      ],
      "name": "CandidateRemoved",
      "type": "event"
    },
    {
      "anonymous": false,
      "inputs": [
        {
          "indexed": false,
          "internalType": "address",
          "name": "addr",
          "type": "address"
        }
      ],
      "name": "LogAddress",
      "type": "event"
    },
    {
      "anonymous": false,
      "inputs": [
        {
          "indexed": false,
          "internalType": "string",
          "name": "message",
          "type": "string"
        }
      ],
      "name": "LogMessage",
      "type": "event"
    },
    {
      "anonymous": false,
      "inputs": [
        {
          "indexed": false,
          "internalType": "uint256",
          "name": "value",
          "type": "uint256"
        }
      ],
      "name": "LogUint",
      "type": "event"
    },
    {
      "anonymous": false,
      "inputs": [
        {
          "indexed": false,
          "internalType": "string",
          "name": "username",
          "type": "string"
        }
      ],
      "name": "UserRegistered",
      "type": "event"
    },
    {
      "anonymous": false,
      "inputs": [
        {
          "indexed": false,
          "internalType": "address",
          "name": "voter",
          "type": "address"
        },
        {
          "indexed": false,
          "internalType": "uint256",
          "name": "candidateId",
          "type": "uint256"
        }
      ],
      "name": "VoteCast",
      "type": "event"
    },
    {
      "inputs": [],
      "name": "admin",
      "outputs": [
        {
          "internalType": "address",
          "name": "",
          "type": "address"
        }
      ],
      "stateMutability": "view",
      "type": "function",
      "constant": true
    },
    {
      "inputs": [],
      "name": "candidateNext",
      "outputs": [
        {
          "internalType": "uint256",
          "name": "",
          "type": "uint256"
        }
      ],
      "stateMutability": "view",
      "type": "function",
      "constant": true
    },
    {
      "inputs": [
        {
          "internalType": "uint256",
          "name": "",
          "type": "uint256"
        }
      ],
      "name": "candidates",
      "outputs": [
        {
          "internalType": "uint256",
          "name": "id",
          "type": "uint256"
        },
        {
          "internalType": "string",
          "name": "name",
          "type": "string"
        },
        {
          "internalType": "uint256",
          "name": "voteCount",
          "type": "uint256"
        }
      ],
      "stateMutability": "view",
      "type": "function",
      "constant": true
    },
    {
      "inputs": [
        {
          "internalType": "uint256",
          "name": "",
          "type": "uint256"
        }
      ],
      "name": "voters",
      "outputs": [
        {
          "internalType": "string",
          "name": "username",
          "type": "string"
        },
        {
          "internalType": "string",
          "name": "password",
          "type": "string"
        },
        {
          "internalType": "bool",
          "name": "registered",
          "type": "bool"
        },
        {
          "internalType": "bool",
          "name": "hasVoted",
          "type": "bool"
        }
      ],
      "stateMutability": "view",
      "type": "function",
      "constant": true
    },
    {
      "inputs": [],
      "name": "votingOpen",
      "outputs": [
        {
          "internalType": "bool",
          "name": "",
          "type": "bool"
        }
      ],
      "stateMutability": "view",
      "type": "function",
      "constant": true
    },
    {
      "inputs": [
        {
          "internalType": "string",
          "name": "_username",
          "type": "string"
        },
        {
          "internalType": "string",
          "name": "_password",
          "type": "string"
        }
      ],
      "name": "registerUser",
      "outputs": [
        {
          "internalType": "bool",
          "name": "",
          "type": "bool"
        }
      ],
      "stateMutability": "nonpayable",
      "type": "function"
    },
    {
      "inputs": [
        {
          "internalType": "string",
          "name": "_name",
          "type": "string"
        }
      ],
      "name": "addCandidate",
      "outputs": [],
      "stateMutability": "nonpayable",
      "type": "function"
    },
    {
      "inputs": [
        {
          "internalType": "string",
          "name": "_candidateName",
          "type": "string"
        }
      ],
      "name": "removeCandidate",
      "outputs": [],
      "stateMutability": "nonpayable",
      "type": "function"
    },
    {
      "inputs": [
        {
          "internalType": "uint256",
          "name": "_candidateId",
          "type": "uint256"
        },
        {
          "internalType": "string",
          "name": "_username",
          "type": "string"
        }
      ],
      "name": "vote",
      "outputs": [
        {
          "internalType": "string",
          "name": "",
          "type": "string"
        }
      ],
      "stateMutability": "nonpayable",
      "type": "function"
    },
    {
      "inputs": [
        {
          "internalType": "uint256",
          "name": "_candidateId",
          "type": "uint256"
        }
      ],
      "name": "getVoteCount",
      "outputs": [
        {
          "internalType": "uint256",
          "name": "",
          "type": "uint256"
        }
      ],
      "stateMutability": "view",
      "type": "function",
      "constant": true
    },
    {
      "inputs": [],
      "name": "openVoting",
      "outputs": [],
      "stateMutability": "nonpayable",
      "type": "function"
    },
    {
      "inputs": [],
      "name": "closeVoting",
      "outputs": [],
      "stateMutability": "nonpayable",
      "type": "function"
    },
    {
      "inputs": [
        {
          "internalType": "string",
          "name": "_username",
          "type": "string"
        },
        {
          "internalType": "string",
          "name": "_password",
          "type": "string"
        }
      ],
      "name": "authenticate",
      "outputs": [
        {
          "internalType": "bool",
          "name": "",
          "type": "bool"
        }
      ],
      "stateMutability": "view",
      "type": "function",
      "constant": true
    },
    {
      "inputs": [],
      "name": "getAllCandidates",
      "outputs": [
        {
          "internalType": "uint256[]",
          "name": "",
          "type": "uint256[]"
        },
        {
          "internalType": "string[]",
          "name": "",
          "type": "string[]"
        },
        {
          "internalType": "uint256[]",
          "name": "",
          "type": "uint256[]"
        }
      ],
      "stateMutability": "view",
      "type": "function",
      "constant": true
    },
    {
      "inputs": [],
      "name": "getVotingOpen",
      "outputs": [
        {
          "internalType": "bool",
          "name": "",
          "type": "bool"
        }
      ],
      "stateMutability": "view",
      "type": "function",
      "constant": true
    }
  ],
  "bytecode": "0x60806040523480156200001157600080fd5b5033600160006101000a81548173ffffffffffffffffffffffffffffffffffffffff021916908373ffffffffffffffffffffffffffffffffffffffff160217905550620000996040518060400160405280600381526020017f426f620000000000000000000000000000000000000000000000000000000000815250620000ed60201b60201c565b620000df6040518060400160405280600481526020017f4a696c6c00000000000000000000000000000000000000000000000000000000815250620000ed60201b60201c565b600260008190555062000799565b600160009054906101000a900473ffffffffffffffffffffffffffffffffffffffff1673ffffffffffffffffffffffffffffffffffffffff163373ffffffffffffffffffffffffffffffffffffffff161462000180576040517f08c379a00000000000000000000000000000000000000000000000000000000081526004016200017790620002d7565b60405180910390fd5b60026040518060600160405280600054815260200183815260200160008152509080600181540180825580915050600190039060005260206000209060030201600090919091909150600082015181600001556020820151816001019081620001ea919062000573565b506040820151816002015550506000808154809291906200020b9062000689565b91905055507fe83b2a43e7e82d975c8a0a6d2f045153c869e111136a34d1889ab7b598e396a3600054826040516200024592919062000765565b60405180910390a150565b600082825260208201905092915050565b7f4f6e6c792061646d696e2063616e2063616c6c20746869732066756e6374696f60008201527f6e2e000000000000000000000000000000000000000000000000000000000000602082015250565b6000620002bf60228362000250565b9150620002cc8262000261565b604082019050919050565b60006020820190508181036000830152620002f281620002b0565b9050919050565b600081519050919050565b7f4e487b7100000000000000000000000000000000000000000000000000000000600052604160045260246000fd5b7f4e487b7100000000000000000000000000000000000000000000000000000000600052602260045260246000fd5b600060028204905060018216806200037b57607f821691505b60208210810362000391576200039062000333565b5b50919050565b60008190508160005260206000209050919050565b60006020601f8301049050919050565b600082821b905092915050565b600060088302620003fb7fffffffffffffffffffffffffffffffffffffffffffffffffffffffffffffffff82620003bc565b620004078683620003bc565b95508019841693508086168417925050509392505050565b6000819050919050565b6000819050919050565b6000620004546200044e62000448846200041f565b62000429565b6200041f565b9050919050565b6000819050919050565b620004708362000433565b620004886200047f826200045b565b848454620003c9565b825550505050565b600090565b6200049f62000490565b620004ac81848462000465565b505050565b5b81811015620004d457620004c860008262000495565b600181019050620004b2565b5050565b601f8211156200052357620004ed8162000397565b620004f884620003ac565b8101602085101562000508578190505b620005206200051785620003ac565b830182620004b1565b50505b505050565b600082821c905092915050565b6000620005486000198460080262000528565b1980831691505092915050565b600062000563838362000535565b9150826002028217905092915050565b6200057e82620002f9565b67ffffffffffffffff8111156200059a576200059962000304565b5b620005a6825462000362565b620005b3828285620004d8565b600060209050601f831160018114620005eb5760008415620005d6578287015190505b620005e2858262000555565b86555062000652565b601f198416620005fb8662000397565b60005b828110156200062557848901518255600182019150602085019450602081019050620005fe565b8683101562000645578489015162000641601f89168262000535565b8355505b6001600288020188555050505b505050505050565b7f4e487b7100000000000000000000000000000000000000000000000000000000600052601160045260246000fd5b600062000696826200041f565b91507fffffffffffffffffffffffffffffffffffffffffffffffffffffffffffffffff8203620006cb57620006ca6200065a565b5b600182019050919050565b620006e1816200041f565b82525050565b60005b8381101562000707578082015181840152602081019050620006ea565b60008484015250505050565b6000601f19601f8301169050919050565b60006200073182620002f9565b6200073d818562000250565b93506200074f818560208601620006e7565b6200075a8162000713565b840191505092915050565b60006040820190506200077c6000830185620006d6565b818103602083015262000790818462000724565b90509392505050565b6126fb80620007a96000396000f3fe608060405234801561001057600080fd5b50600436106100f55760003560e01c8063544541b311610097578063b2c2f2e811610066578063b2c2f2e814610278578063c631b292146102a8578063da58c7d9146102b2578063f851a440146102e5576100f5565b8063544541b3146102025780638bd9230114610232578063a95824b414610250578063affc06701461026e576100f5565b806324108475116100d357806324108475146101645780632e6997fe146101945780633477ee2e146101b4578063462e91ec146101e6576100f5565b806301504ca5146100fa57806301c9605b146101185780631d2e4afd14610134575b600080fd5b610102610303565b60405161010f91906114ce565b60405180910390f35b610132600480360381019061012d9190611643565b61031a565b005b61014e6004803603810190610149919061168c565b610546565b60405161015b91906114ce565b60405180910390f35b61017e6004803603810190610179919061173a565b610661565b60405161018b9190611815565b60405180910390f35b61019c61096d565b6040516101ab93929190611a01565b60405180910390f35b6101ce60048036038101906101c99190611a4d565b610bf8565b6040516101dd93929190611a89565b60405180910390f35b61020060048036038101906101fb9190611643565b610cba565b005b61021c6004803603810190610217919061168c565b610e14565b60405161022991906114ce565b60405180910390f35b61023a610eb9565b6040516102479190611ac7565b60405180910390f35b610258610ebf565b60405161026591906114ce565b60405180910390f35b610276610ed2565b005b610292600480360381019061028d9190611a4d565b610f7e565b60405161029f9190611ac7565b60405180910390f35b6102b0610fb9565b005b6102cc60048036038101906102c79190611a4d565b611066565b6040516102dc9493929190611ae2565b60405180910390f35b6102ed6111d0565b6040516102fa9190611b76565b60405180910390f35b6000600160149054906101000a900460ff16905090565b600160009054906101000a900473ffffffffffffffffffffffffffffffffffffffff1673ffffffffffffffffffffffffffffffffffffffff163373ffffffffffffffffffffffffffffffffffffffff16146103aa576040517f08c379a00000000000000000000000000000000000000000000000000000000081526004016103a190611c03565b60405180910390fd5b60006103b5826111f6565b905060028054905081106103fe576040517f08c379a00000000000000000000000000000000000000000000000000000000081526004016103f590611c6f565b60405180910390fd5b600260016002805490506104129190611cbe565b8154811061042357610422611cf2565b5b90600052602060002090600302016002828154811061044557610444611cf2565b5b906000526020600020906003020160008201548160000155600182018160010190816104719190611f43565b506002820154816002015590505060028054806104915761049061202b565b5b60019003818190600052602060002090600302016000808201600090556001820160006104be9190611456565b60028201600090555050905580600282815481106104df576104de611cf2565b5b9060005260206000209060030201600001819055506000808154809291906105069061205a565b91905055507ff18053d9ab7bc11ec8a40899b8e79a7ec863b001ca163631a6c96074e84be24e8260405161053a9190611815565b60405180910390a15050565b6000610551836112df565b1561055f576000905061065b565b6003604051806080016040528085815260200184815260200160011515815260200160001515815250908060018154018082558091505060019003906000526020600020906003020160009091909190915060008201518160000190816105c69190612083565b5060208201518160010190816105dc9190612083565b5060408201518160020160006101000a81548160ff02191690831515021790555060608201518160020160016101000a81548160ff02191690831515021790555050507f270ff4b111e5baa49283562af127cc5ea74e9d6c9efd5465578bd9223d5843f08360405161064e9190611815565b60405180910390a1600190505b92915050565b606060011515600160149054906101000a900460ff161515146106b9576040517f08c379a00000000000000000000000000000000000000000000000000000000081526004016106b0906121a1565b60405180910390fd5b7f96561394bac381230de4649200e8831afcab1f451881bbade9ef209f6dd304806040516106e69061220d565b60405180910390a160036106f983611393565b8154811061070a57610709611cf2565b5b906000526020600020906003020160020160019054906101000a900460ff16156107a0577f96561394bac381230de4649200e8831afcab1f451881bbade9ef209f6dd3048060405161075b90612279565b60405180910390a16040518060400160405280601781526020017f596f75206861766520616c726561647920766f7465642e0000000000000000008152509050610967565b7f96561394bac381230de4649200e8831afcab1f451881bbade9ef209f6dd304806040516107cd906122e5565b60405180910390a1600160036107e284611393565b815481106107f3576107f2611cf2565b5b906000526020600020906003020160020160016101000a81548160ff0219169083151502179055507f96561394bac381230de4649200e8831afcab1f451881bbade9ef209f6dd3048060405161084890612351565b60405180910390a16002838154811061086457610863611cf2565b5b9060005260206000209060030201600201600081548092919061088690612371565b91905055507f96561394bac381230de4649200e8831afcab1f451881bbade9ef209f6dd304806040516108b890612405565b60405180910390a17fa36cc2bebb74db33e9f88110a07ef56e1b31b24b4c4f51b54b1664266e29f45b33846040516108f1929190612425565b60405180910390a17f96561394bac381230de4649200e8831afcab1f451881bbade9ef209f6dd304806040516109269061249a565b60405180910390a16040518060400160405280601681526020017f566f74652063617374207375636365737366756c6c790000000000000000000081525090505b92915050565b6060806060600060028054905067ffffffffffffffff81111561099357610992611518565b5b6040519080825280602002602001820160405280156109c15781602001602082028036833780820191505090505b509050600060028054905067ffffffffffffffff8111156109e5576109e4611518565b5b604051908082528060200260200182016040528015610a1857816020015b6060815260200190600190039081610a035790505b509050600060028054905067ffffffffffffffff811115610a3c57610a3b611518565b5b604051908082528060200260200182016040528015610a6a5781602001602082028036833780820191505090505b50905060005b600280549050811015610be65760028181548110610a9157610a90611cf2565b5b906000526020600020906003020160000154848281518110610ab657610ab5611cf2565b5b60200260200101818152505060028181548110610ad657610ad5611cf2565b5b90600052602060002090600302016001018054610af290611d50565b80601f0160208091040260200160405190810160405280929190818152602001828054610b1e90611d50565b8015610b6b5780601f10610b4057610100808354040283529160200191610b6b565b820191906000526020600020905b815481529060010190602001808311610b4e57829003601f168201915b5050505050838281518110610b8357610b82611cf2565b5b602002602001018190525060028181548110610ba257610ba1611cf2565b5b906000526020600020906003020160020154828281518110610bc757610bc6611cf2565b5b6020026020010181815250508080610bde90612371565b915050610a70565b50828282955095509550505050909192565b60028181548110610c0857600080fd5b9060005260206000209060030201600091509050806000015490806001018054610c3190611d50565b80601f0160208091040260200160405190810160405280929190818152602001828054610c5d90611d50565b8015610caa5780601f10610c7f57610100808354040283529160200191610caa565b820191906000526020600020905b815481529060010190602001808311610c8d57829003601f168201915b5050505050908060020154905083565b600160009054906101000a900473ffffffffffffffffffffffffffffffffffffffff1673ffffffffffffffffffffffffffffffffffffffff163373ffffffffffffffffffffffffffffffffffffffff1614610d4a576040517f08c379a0000000000000000000000000000000000000000000000000000000008152600401610d4190611c03565b60405180910390fd5b60026040518060600160405280600054815260200183815260200160008152509080600181540180825580915050600190039060005260206000209060030201600090919091909150600082015181600001556020820151816001019081610db29190612083565b50604082015181600201555050600080815480929190610dd190612371565b91905055507fe83b2a43e7e82d975c8a0a6d2f045153c869e111136a34d1889ab7b598e396a360005482604051610e099291906124ba565b60405180910390a150565b6000806003610e2285611393565b81548110610e3357610e32611cf2565b5b906000526020600020906003020190508060020160009054906101000a900460ff16610e63576000915050610eb3565b838051906020012081600001604051610e7c919061258d565b6040518091039020148015610eaf5750828051906020012081600101604051610ea5919061258d565b6040518091039020145b9150505b92915050565b60005481565b600160149054906101000a900460ff1681565b600160009054906101000a900473ffffffffffffffffffffffffffffffffffffffff1673ffffffffffffffffffffffffffffffffffffffff163373ffffffffffffffffffffffffffffffffffffffff1614610f62576040517f08c379a0000000000000000000000000000000000000000000000000000000008152600401610f5990611c03565b60405180910390fd5b60018060146101000a81548160ff021916908315150217905550565b60006002600183610f8f9190611cbe565b81548110610fa057610f9f611cf2565b5b9060005260206000209060030201600201549050919050565b600160009054906101000a900473ffffffffffffffffffffffffffffffffffffffff1673ffffffffffffffffffffffffffffffffffffffff163373ffffffffffffffffffffffffffffffffffffffff1614611049576040517f08c379a000000000000000000000000000000000000000000000000000000000815260040161104090611c03565b60405180910390fd5b6000600160146101000a81548160ff021916908315150217905550565b6003818154811061107657600080fd5b906000526020600020906003020160009150905080600001805461109990611d50565b80601f01602080910402602001604051908101604052809291908181526020018280546110c590611d50565b80156111125780601f106110e757610100808354040283529160200191611112565b820191906000526020600020905b8154815290600101906020018083116110f557829003601f168201915b50505050509080600101805461112790611d50565b80601f016020809104026020016040519081016040528092919081815260200182805461115390611d50565b80156111a05780601f10611175576101008083540402835291602001916111a0565b820191906000526020600020905b81548152906001019060200180831161118357829003601f168201915b5050505050908060020160009054906101000a900460ff16908060020160019054906101000a900460ff16905084565b600160009054906101000a900473ffffffffffffffffffffffffffffffffffffffff1681565b600080600090505b60028054905081101561129e578260405160200161121c91906125e0565b604051602081830303815290604052805190602001206002828154811061124657611245611cf2565b5b9060005260206000209060030201600101604051602001611267919061267a565b604051602081830303815290604052805190602001200361128b57809150506112da565b808061129690612371565b9150506111fe565b506040517f08c379a00000000000000000000000000000000000000000000000000000000081526004016112d190611c6f565b60405180910390fd5b919050565b600080600090505b600380549050811015611388578260405160200161130591906125e0565b604051602081830303815290604052805190602001206003828154811061132f5761132e611cf2565b5b9060005260206000209060030201600001604051602001611350919061267a565b604051602081830303815290604052805190602001200361137557600191505061138e565b808061138090612371565b9150506112e7565b50600090505b919050565b600080600090505b60038054905081101561143b57826040516020016113b991906125e0565b60405160208183030381529060405280519060200120600382815481106113e3576113e2611cf2565b5b9060005260206000209060030201600001604051602001611404919061267a565b60405160208183030381529060405280519060200120036114285780915050611451565b808061143390612371565b91505061139b565b50600160038054905061144e9190612691565b90505b919050565b50805461146290611d50565b6000825580601f106114745750611493565b601f0160209004906000526020600020908101906114929190611496565b5b50565b5b808211156114af576000816000905550600101611497565b5090565b60008115159050919050565b6114c8816114b3565b82525050565b60006020820190506114e360008301846114bf565b92915050565b6000604051905090565b600080fd5b600080fd5b600080fd5b600080fd5b6000601f19601f8301169050919050565b7f4e487b7100000000000000000000000000000000000000000000000000000000600052604160045260246000fd5b61155082611507565b810181811067ffffffffffffffff8211171561156f5761156e611518565b5b80604052505050565b60006115826114e9565b905061158e8282611547565b919050565b600067ffffffffffffffff8211156115ae576115ad611518565b5b6115b782611507565b9050602081019050919050565b82818337600083830152505050565b60006115e66115e184611593565b611578565b90508281526020810184848401111561160257611601611502565b5b61160d8482856115c4565b509392505050565b600082601f83011261162a576116296114fd565b5b813561163a8482602086016115d3565b91505092915050565b600060208284031215611659576116586114f3565b5b600082013567ffffffffffffffff811115611677576116766114f8565b5b61168384828501611615565b91505092915050565b600080604083850312156116a3576116a26114f3565b5b600083013567ffffffffffffffff8111156116c1576116c06114f8565b5b6116cd85828601611615565b925050602083013567ffffffffffffffff8111156116ee576116ed6114f8565b5b6116fa85828601611615565b9150509250929050565b6000819050919050565b61171781611704565b811461172257600080fd5b50565b6000813590506117348161170e565b92915050565b60008060408385031215611751576117506114f3565b5b600061175f85828601611725565b925050602083013567ffffffffffffffff8111156117805761177f6114f8565b5b61178c85828601611615565b9150509250929050565b600081519050919050565b600082825260208201905092915050565b60005b838110156117d05780820151818401526020810190506117b5565b60008484015250505050565b60006117e782611796565b6117f181856117a1565b93506118018185602086016117b2565b61180a81611507565b840191505092915050565b6000602082019050818103600083015261182f81846117dc565b905092915050565b600081519050919050565b600082825260208201905092915050565b6000819050602082019050919050565b61186c81611704565b82525050565b600061187e8383611863565b60208301905092915050565b6000602082019050919050565b60006118a282611837565b6118ac8185611842565b93506118b783611853565b8060005b838110156118e85781516118cf8882611872565b97506118da8361188a565b9250506001810190506118bb565b5085935050505092915050565b600081519050919050565b600082825260208201905092915050565b6000819050602082019050919050565b600082825260208201905092915050565b600061193d82611796565b6119478185611921565b93506119578185602086016117b2565b61196081611507565b840191505092915050565b60006119778383611932565b905092915050565b6000602082019050919050565b6000611997826118f5565b6119a18185611900565b9350836020820285016119b385611911565b8060005b858110156119ef57848403895281516119d0858261196b565b94506119db8361197f565b925060208a019950506001810190506119b7565b50829750879550505050505092915050565b60006060820190508181036000830152611a1b8186611897565b90508181036020830152611a2f818561198c565b90508181036040830152611a438184611897565b9050949350505050565b600060208284031215611a6357611a626114f3565b5b6000611a7184828501611725565b91505092915050565b611a8381611704565b82525050565b6000606082019050611a9e6000830186611a7a565b8181036020830152611ab081856117dc565b9050611abf6040830184611a7a565b949350505050565b6000602082019050611adc6000830184611a7a565b92915050565b60006080820190508181036000830152611afc81876117dc565b90508181036020830152611b1081866117dc565b9050611b1f60408301856114bf565b611b2c60608301846114bf565b95945050505050565b600073ffffffffffffffffffffffffffffffffffffffff82169050919050565b6000611b6082611b35565b9050919050565b611b7081611b55565b82525050565b6000602082019050611b8b6000830184611b67565b92915050565b7f4f6e6c792061646d696e2063616e2063616c6c20746869732066756e6374696f60008201527f6e2e000000000000000000000000000000000000000000000000000000000000602082015250565b6000611bed6022836117a1565b9150611bf882611b91565b604082019050919050565b60006020820190508181036000830152611c1c81611be0565b9050919050565b7f43616e646964617465206e6f7420666f756e6400000000000000000000000000600082015250565b6000611c596013836117a1565b9150611c6482611c23565b602082019050919050565b60006020820190508181036000830152611c8881611c4c565b9050919050565b7f4e487b7100000000000000000000000000000000000000000000000000000000600052601160045260246000fd5b6000611cc982611704565b9150611cd483611704565b9250828203905081811115611cec57611ceb611c8f565b5b92915050565b7f4e487b7100000000000000000000000000000000000000000000000000000000600052603260045260246000fd5b7f4e487b7100000000000000000000000000000000000000000000000000000000600052602260045260246000fd5b60006002820490506001821680611d6857607f821691505b602082108103611d7b57611d7a611d21565b5b50919050565b600081549050611d9081611d50565b9050919050565b60008190508160005260206000209050919050565b60006020601f8301049050919050565b600082821b905092915050565b600060088302611df97fffffffffffffffffffffffffffffffffffffffffffffffffffffffffffffffff82611dbc565b611e038683611dbc565b95508019841693508086168417925050509392505050565b6000819050919050565b6000611e40611e3b611e3684611704565b611e1b565b611704565b9050919050565b6000819050919050565b611e5a83611e25565b611e6e611e6682611e47565b848454611dc9565b825550505050565b600090565b611e83611e76565b611e8e818484611e51565b505050565b5b81811015611eb257611ea7600082611e7b565b600181019050611e94565b5050565b601f821115611ef757611ec881611d97565b611ed184611dac565b81016020851015611ee0578190505b611ef4611eec85611dac565b830182611e93565b50505b505050565b600082821c905092915050565b6000611f1a60001984600802611efc565b1980831691505092915050565b6000611f338383611f09565b9150826002028217905092915050565b818103611f51575050612029565b611f5a82611d81565b67ffffffffffffffff811115611f7357611f72611518565b5b611f7d8254611d50565b611f88828285611eb6565b6000601f831160018114611fb75760008415611fa5578287015490505b611faf8582611f27565b865550612022565b601f198416611fc587611d97565b9650611fd086611d97565b60005b82811015611ff857848901548255600182019150600185019450602081019050611fd3565b868310156120155784890154612011601f891682611f09565b8355505b6001600288020188555050505b5050505050505b565b7f4e487b7100000000000000000000000000000000000000000000000000000000600052603160045260246000fd5b600061206582611704565b91506000820361207857612077611c8f565b5b600182039050919050565b61208c82611796565b67ffffffffffffffff8111156120a5576120a4611518565b5b6120af8254611d50565b6120ba828285611eb6565b600060209050601f8311600181146120ed57600084156120db578287015190505b6120e58582611f27565b86555061214d565b601f1984166120fb86611d97565b60005b82811015612123578489015182556001820191506020850194506020810190506120fe565b86831015612140578489015161213c601f891682611f09565b8355505b6001600288020188555050505b505050505050565b7f566f74696e67206973206e6f74206f70656e2e00000000000000000000000000600082015250565b600061218b6013836117a1565b915061219682612155565b602082019050919050565b600060208201905081810360008301526121ba8161217e565b9050919050565b7f5374617274696e6720766f74652066756e6374696f6e00000000000000000000600082015250565b60006121f76016836117a1565b9150612202826121c1565b602082019050919050565b60006020820190508181036000830152612226816121ea565b9050919050565b7f557365722068617320616c726561647920766f74656400000000000000000000600082015250565b60006122636016836117a1565b915061226e8261222d565b602082019050919050565b6000602082019050818103600083015261229281612256565b9050919050565b7f566f74657220686173206e6f7420766f74656420796574000000000000000000600082015250565b60006122cf6017836117a1565b91506122da82612299565b602082019050919050565b600060208201905081810360008301526122fe816122c2565b9050919050565b7f566f74657220686173206e6f7720766f74656400000000000000000000000000600082015250565b600061233b6013836117a1565b915061234682612305565b602082019050919050565b6000602082019050818103600083015261236a8161232e565b9050919050565b600061237c82611704565b91507fffffffffffffffffffffffffffffffffffffffffffffffffffffffffffffffff82036123ae576123ad611c8f565b5b600182019050919050565b7f566f746520636f756e7420696e6372656d656e74656400000000000000000000600082015250565b60006123ef6016836117a1565b91506123fa826123b9565b602082019050919050565b6000602082019050818103600083015261241e816123e2565b9050919050565b600060408201905061243a6000830185611b67565b6124476020830184611a7a565b9392505050565b7f566f746543617374206576656e7420656d697474656400000000000000000000600082015250565b60006124846016836117a1565b915061248f8261244e565b602082019050919050565b600060208201905081810360008301526124b381612477565b9050919050565b60006040820190506124cf6000830185611a7a565b81810360208301526124e181846117dc565b90509392505050565b600081905092915050565b60008190508160005260206000209050919050565b6000815461251781611d50565b61252181866124ea565b9450600182166000811461253c576001811461255157612584565b60ff1983168652811515820286019350612584565b61255a856124f5565b60005b8381101561257c5781548189015260018201915060208101905061255d565b838801955050505b50505092915050565b6000612599828461250a565b915081905092915050565b600081905092915050565b60006125ba82611796565b6125c481856125a4565b93506125d48185602086016117b2565b80840191505092915050565b60006125ec82846125af565b915081905092915050565b6000815461260481611d50565b61260e81866125a4565b94506001821660008114612629576001811461263e57612671565b60ff1983168652811515820286019350612671565b61264785611d97565b60005b838110156126695781548189015260018201915060208101905061264a565b838801955050505b50505092915050565b600061268682846125f7565b915081905092915050565b600061269c82611704565b91506126a783611704565b92508282019050808211156126bf576126be611c8f565b5b9291505056fea264697066735822122044372e0f9b494aa774c43e81830a927f6f57a57406bfd9b4ab7410c76b62816664736f6c63430008130033",
  "immutableReferences": {},
  "source": "// SPDX-License-Identifier: MIT\r\npragma solidity ^0.8.0;\r\n\r\ncontract Voting {\r\n    struct Candidate {\r\n        uint id;\r\n        string name;\r\n        uint voteCount;\r\n    }\r\n\r\n    struct Voter {\r\n        string username;\r\n        string password;\r\n        bool registered;\r\n        bool hasVoted;\r\n    }\r\n\r\n    uint public candidateNext;\r\n    address public admin;\r\n    bool public votingOpen;\r\n    Candidate[] public candidates;\r\n    Voter[] public voters; // Mapping of addresses to Voter structs\r\n\r\n    constructor() {\r\n        admin = msg.sender;\r\n        addCandidate(\"Bob\");\r\n        addCandidate(\"Jill\");\r\n        candidateNext = 2;\r\n    }\r\n\r\n    modifier onlyAdmin() {\r\n        require(msg.sender == admin, \"Only admin can call this function.\");\r\n        _;\r\n    }\r\n\r\n    modifier votingOpenOnly() {\r\n        require(votingOpen == true, \"Voting is not open.\");\r\n        _;\r\n    }\r\n\r\n    event UserRegistered(string username);\r\n    event CandidateAdded(uint id, string name);\r\n    event VoteCast(address voter, uint candidateId);\r\n    event CandidateRemoved(string name);\r\n    event LogMessage(string message);\r\n    event LogAddress(address addr);\r\n    event LogUint(uint value);\r\n\r\n    function registerUser(string memory _username, string memory _password) public returns (bool) {\r\n        if (isUsernameRegistered(_username)) {\r\n            return false;\r\n        }\r\n\r\n        voters.push(Voter(_username, _password, true, false));\r\n        emit UserRegistered(_username);\r\n        return true;\r\n    }\r\n\r\n    function addCandidate(string memory _name) public onlyAdmin {\r\n        candidates.push(Candidate(candidateNext, _name, 0));\r\n        candidateNext++;\r\n        emit CandidateAdded(candidateNext, _name);\r\n    }\r\n\r\n    function removeCandidate(string memory _candidateName) public onlyAdmin {\r\n        uint index = findIndexByName(_candidateName);\r\n        require(index < candidates.length, \"Candidate not found\");\r\n        candidates[index] = candidates[candidates.length - 1];\r\n        candidates.pop();\r\n        candidates[index].id = index;\r\n        candidateNext--;\r\n        emit CandidateRemoved(_candidateName);\r\n    }\r\n\r\n    function findIndexByName(string memory _name) internal view returns (uint) {\r\n        for (uint i = 0; i < candidates.length; i++) {\r\n            if (keccak256(abi.encodePacked(candidates[i].name)) == keccak256(abi.encodePacked(_name))) {\r\n                return i;\r\n            }\r\n        }\r\n        revert(\"Candidate not found\");\r\n    }\r\n\r\n    function isUsernameRegistered(string memory _username) internal view returns (bool) {\r\n        for (uint i = 0; i < voters.length; i++) {\r\n            if (keccak256(abi.encodePacked(voters[i].username)) == keccak256(abi.encodePacked(_username))) {\r\n                return true;\r\n            }\r\n        }\r\n        return false;\r\n    }\r\n\r\n    function findIndexUser(string memory _username) internal view returns (uint) {\r\n        for (uint i = 0; i < voters.length; i++) {\r\n            if (keccak256(abi.encodePacked(voters[i].username)) == keccak256(abi.encodePacked(_username))) {\r\n                return i;\r\n            }\r\n        }\r\n        return voters.length + 1; // This would indicate that the user was not found\r\n    }\r\n\r\n    function vote(uint _candidateId, string memory _username) public votingOpenOnly returns (string memory) {\r\n        emit LogMessage(\"Starting vote function\");\r\n\r\n//        if (!voters[findIndexUser(_username)].registered) {\r\n//            emit LogMessage(\"User is not registered\");\r\n//            return \"You must be registered to vote.\";\r\n//        }\r\n\r\n        if (voters[findIndexUser(_username)].hasVoted) {\r\n            emit LogMessage(\"User has already voted\");\r\n            return \"You have already voted.\";\r\n        }\r\n        emit LogMessage(\"Voter has not voted yet\");\r\n\r\n        voters[findIndexUser(_username)].hasVoted = true;\r\n        emit LogMessage(\"Voter has now voted\");\r\n\r\n        candidates[_candidateId].voteCount++;\r\n        emit LogMessage(\"Vote count incremented\");\r\n\r\n        emit VoteCast(msg.sender, _candidateId);\r\n        emit LogMessage(\"VoteCast event emitted\");\r\n\r\n        return \"Vote cast successfully\";\r\n    }\r\n\r\n    function getVoteCount(uint _candidateId) public view returns (uint) {\r\n        return candidates[_candidateId - 1].voteCount; // Adjust index since _candidateId starts from 1\r\n    }\r\n\r\n    function openVoting() public onlyAdmin {\r\n        votingOpen = true;\r\n    }\r\n\r\n    function closeVoting() public onlyAdmin {\r\n        votingOpen = false;\r\n    }\r\n\r\n    function authenticate(string memory _username, string memory _password) public view returns (bool) {\r\n        Voter storage voter = voters[findIndexUser(_username)];\r\n        if (!voter.registered) {\r\n            return false;\r\n        }\r\n        return keccak256(bytes(voter.username)) == keccak256(bytes(_username)) && keccak256(bytes(voter.password)) == keccak256(bytes(_password));\r\n    }\r\n\r\n    function getAllCandidates() public view returns (uint[] memory, string[] memory, uint[] memory) {\r\n        uint[] memory ids = new uint[](candidates.length);\r\n        string[] memory names = new string[](candidates.length);\r\n        uint[] memory voteCounts = new uint[](candidates.length);\r\n\r\n        for (uint i = 0; i < candidates.length; i++) {\r\n            ids[i] = candidates[i].id;\r\n            names[i] = candidates[i].name;\r\n            voteCounts[i] = candidates[i].voteCount;\r\n        }\r\n        return (ids, names, voteCounts);\r\n    }\r\n\r\n    function getVotingOpen() public view returns (bool) {\r\n        return votingOpen;\r\n    }\r\n}\r\n",
  "sourcePath": "C:\\Users\\saiha\\blockchain-voting-system\\contracts\\Voting.sol",
  "compiler": {
    "name": "solc",
    "version": "0.8.19+commit.7dd6d404.Emscripten.clang"
  },
  "schemaVersion": "3.4.16",
  "updatedAt": "2024-08-16T13:56:18.378Z",
  "networkType": "ethereum",
  "devdoc": {
    "kind": "dev",
    "methods": {},
    "version": 1
  },
  "userdoc": {
    "kind": "user",
    "methods": {},
    "version": 1
  }
}